:100000000C9434000C9476010C9451000C94510023
:100010000C9451000C9451000C9451000C9451001C
:100020000C9451000C9451000C9451000C94BF019D
:100030000C9451000C9451000C9451000C945100FC
:100040000C9451000C9451000C9451000C945100EC
:100050000C9451000C9451000C9451000C945100DC
:100060000C9451000C94510011241FBECFEFD8E026
:10007000DEBFCDBF14E0A0E0B1E0E4E0F2E102C0F9
:1000800005900D92A23AB107D9F724E0A2EAB4E0B4
:1000900001C01D92A63BB207E1F70E9404020C9436
:1000A00000090C94000010927C00EAE7F0E08081E7
:1000B000876880830895ECE7F0E09081907E8770F8
:1000C000892B8083EAE7F0E08081806480838091DF
:1000D0007A0084FFFCCFEAE7F0E0808180618083D2
:1000E0008091780090917900089595B19E7F95B99F
:1000F000EFE9FFE03197F1F700C0000095B19260A1
:1001000095B9EFE9FFE03197F1F700C000009BB12E
:10011000282F207F9F70922B9BB9EFE9FFE031974A
:10012000F1F700C0000095B19D7F95B9EFE9FFE0C0
:100130003197F1F700C0000095B1926095B9EFE9F1
:10014000FFE03197F1F700C00000F0E18F9FC001A0
:1001500011249BB19F70892B8BB98FE99FE0019788
:10016000F1F700C0000085B18D7F85B9EFE9FFE0B0
:100170003197F1F700C00000089584B1836084B91D
:1001800080EF8AB982E00E94750080E40E947500C9
:100190008CE00E94750081E00E947500089595B181
:1001A000916095B9EFE9FFE03197F1F700C00000E9
:1001B00095B1926095B9EFE9FFE03197F1F700C092
:1001C00000009BB1282F207F9F70922B9BB9EFE9F5
:1001D000FFE03197F1F700C0000095B19D7F95B920
:1001E000EFE9FFE03197F1F700C0000095B19260B0
:1001F00095B9EFE9FFE03197F1F700C00000F0E1B9
:100200008F9FC00111249BB19F70892B8BB98FE9FF
:100210009FE00197F1F700C0000085B18D7F85B99F
:10022000EFE9FFE03197F1F700C0000008950F9368
:100230001F93CF93DF938C01C0E0D0E003C00E94F6
:10024000CF002196F801EC0FFD1F80818111F7CFBF
:10025000DF91CF911F910F91089581E00E94750069
:100260000895882329F0813021F490E4960F01C08D
:10027000962F892F80680E9475000895CF93DF9391
:10028000CDB7DEB760970FB6F894DEBF0FBECDBF17
:100290000E942D0160E080E00E94310186E394E03D
:1002A0000E94170180E00E945B004AE050E0BE011E
:1002B0006F5F7F4F0E94D60565E080E00E943101AC
:1002C000CE0101960E94170160960FB6F894DEBF2A
:1002D0000FBECDBFDF91CF91089560E081E00E9415
:1002E00031018CE394E00E94170108951F920F9250
:1002F0000FB60F9211242F933F934F935F936F93F9
:100300007F938F939F93AF93BF93EF93FF930E943D
:100310006D01FF91EF91BF91AF919F918F917F916F
:100320006F915F914F913F912F910F900FBE0F9062
:100330001F901895CF93DF93CDB7DEB760970FB6B8
:10034000F894DEBF0FBECDBF69E080E00E943101AE
:1003500081E00E945B004AE050E0BE016F5F7F4F8A
:100360000E94D605CE0101960E94170160960FB635
:10037000F894DEBF0FBECDBFDF91CF9108951F92DD
:100380000F920FB60F9211242F933F934F935F93C9
:100390006F937F938F939F93AF93BF93EF93FF934D
:1003A0000E943E010E949A01FF91EF91BF91AF918F
:1003B0009F918F917F916F915F914F913F912F917D
:1003C0000F900FBE0F901F901895109285001092FD
:1003D00084008DE080938100EFE6F0E08081826010
:1003E00080838FEF9FEF909389008093880008951A
:1003F0008AB18B7F8AB98DB381608DBBE9E6F0E06D
:1004000080818360808308958AB18E7F8AB90E943B
:10041000BD000E942D010E9453000E9421026CE445
:1004200074E085E594E00E94540282EA94E00E9420
:10043000EC020E94E5010E94F80178940E942104D8
:10044000FDCF86E08093C20088E18093C10082E006
:100450008093C0008FEC8093C4001092C500089573
:100460009091C00095FFFCCF8093C60008958091C5
:10047000C0008823E4F78091C60008950F931F936E
:10048000CF93DF938C01C0E0D0E003C00E94300224
:100490002196F801EC0FFD1F80818111F7CFDF91CC
:1004A000CF911F910F910895EF92FF920F931F9399
:1004B000CF93DF93CDB7DEB7A8970FB6F894DEBF22
:1004C0000FBECDBF182F092FF62EE72E8DE091E03D
:1004D0000E943E022FEF85EE9AEA21508040904024
:1004E000E1F700C000008EE290E00E94CF0087E1BB
:1004F00091E00E943E022FEF85EE9AEA2150804063
:100500009040E1F700C000008EE290E00E94CF0032
:10051000EF92FF920F931F9383E391E09F938F934A
:100520008E010F5F1F4F1F930F930E940606C80195
:100530000E943E022FEF85EE9AEA215080409040C3
:10054000E1F700C000008EE290E00E94CF0089E455
:1005500091E00E943E022FEF85EE9AEA2150804002
:100560009040E1F700C000008EE290E00E94CF00D2
:1005700088E591E00E943E022FEF85EE9AEA215035
:1005800080409040E1F700C000008EE290E00E94C1
:10059000CF0087E691E00E943E022FEF85EE9AEAB7
:1005A000215080409040E1F700C000008EE290E0D2
:1005B0000E94CF000FB6F894DEBF0FBECDBFA89645
:1005C0000FB6F894DEBF0FBECDBFDF91CF911F9164
:1005D0000F91FF90EF900895EF92FF920F931F936A
:1005E000CF93DF93CDB7DEB7CB54D1090FB6F894D4
:1005F000DEBF0FBECDBF8C018BE594E00E943E02B2
:10060000F12C0BC00E943702E82EE1E0F0E0EC0F85
:10061000FD1FEF0DF11D8083F3942DE4E212F2CF64
:10062000E1E0F0E0EC0FFD1FEF0DF11D108220E086
:1006300030E040E090E00CC0913029F4F801E40F84
:10064000F11D80834F5F823209F49F5F2F5F3F4F20
:10065000E1E0F0E0EC0FFD1FE20FF31F808181115C
:10066000EBCFE42FF0E03197E00FF11F10820E94F2
:100670002D01C8010E9417018FEF95EC2CE58150E8
:1006800090402040E1F700C00000C55BDF4F0FB68F
:10069000F894DEBF0FBECDBFDF91CF911F910F91B8
:1006A000FF90EF9008958133B1F42A9B0AC086E64B
:1006B00094E090930B0180930A0185B18B7F85B9FB
:1006C00021C08AE694E090930B0180930A0185B1E2
:1006D000846085B917C08233A9F42B9B0AC086E6D3
:1006E00094E0909309018093080185B1877F85B9D3
:1006F00009C08AE694E0909309018093080185B1CE
:10070000886085B980E090E00E945B00853F914061
:100710003CF08DE694E090930701809306010895E4
:100720004A9B07C080E894E09093070180930601FC
:10073000089580E994E0909307018093060108955D
:10074000FF920F931F93CF93DF93CDB7DEB76497DC
:100750000FB6F894DEBF0FBECDBF10E000E00FC0B3
:100760000E9437028B3209F411E0113041F4E1E0CC
:10077000F0E0EC0FFD1FE00FF11D80830F5F0131F2
:1007800078F3113019F48E8180930C01E02FF0E0A2
:10079000319641E050E04C0F5D1FE40FF51F1082D1
:1007A00025E022C0FC01329741E050E04C0F5D1F74
:1007B000E40FF51F40814734B1F4FC01319741E06B
:1007C00050E04C0F5D1FE40FF51F4081453459F494
:1007D000343549F40396E1E0F0E0EC0FFD1FE80F3B
:1007E000F91FF0800CC02F5F822F90E0E1E0F0E075
:1007F000EC0FFD1FE80FF91F30813111D3CF8F2D82
:1008000090E00E94530380910C0164960FB6F89417
:10081000DEBF0FBECDBFDF91CF911F910F91FF9033
:100820000895BC0120E030E080E090E003C0019634
:100830002F5F3F4FFB01E20FF31F40814111F7CFC4
:100840000895DF92EF92FF920F931F93CF93DF9360
:10085000CDB7DEB7C555D1090FB6F894DEBF0FBED0
:10086000CDBF0E94A003D82E8CE791E00E94110416
:1008700002960E94B504082F192F809109018F93C9
:10088000809108018F9380910B018F9380910A01D1
:100890008F93809107018F93809106018F938CE74E
:1008A00091E09F938F931F930F930E940606802FD2
:1008B000912F0E9411049F938F931F92DF9280E1EA
:1008C00094E09F938F937E0129E2E20EF11CFF9248
:1008D000EF920E940606C7010E943E028FEF93ED41
:1008E00020E3815090402040E1F700C00000802FBD
:1008F000912F0E943E028FEF93ED20E381509040B4
:100900002040E1F700C00000802F912F0E944D058C
:100910001F92DF9284E294E09F938F938E010F5F8A
:100920001F4F1F930F930E940606C8010E943E02AC
:100930008FEF93ED20E3815090402040E1F700C01D
:1009400000000FB6F894DEBF0FBECDBFCB5ADF4F0D
:100950000FB6F894DEBF0FBECDBFDF91CF911F91D0
:100960000F91FF90EF90DF9008950F931F93CF9317
:10097000DF938230910510F482E090E0E091B404BE
:10098000F091B50420E030E0A0E0B0E0309719F13C
:10099000408151810281138148175907C8F084179B
:1009A000950769F4109731F012960C9312971396ED
:1009B0001C9327C00093B4041093B50422C02115E2
:1009C000310519F04217530718F49A01BD01EF01E0
:1009D000DF01F801DBCF21153105F9F0281B390BB8
:1009E0002430310580F48A819B816115710521F0E5
:1009F000FB019383828304C09093B5048093B40475
:100A0000FE01329644C0FE01E20FF31F81939193E1
:100A100022503109398328833AC02091B2043091A1
:100A2000B304232B41F42091020130910301309350
:100A3000B3042093B20420910001309101012115EB
:100A4000310541F42DB73EB74091040150910501A5
:100A5000241B350BE091B204F091B304E217F307C5
:100A6000A0F42E1B3F0B2817390778F0AC014E5F1E
:100A70005F4F2417350748F04E0F5F1F5093B304A4
:100A80004093B2048193919302C0E0E0F0E0CF0183
:100A9000DF91CF911F910F910895CF93DF9300972E
:100AA00009F481C0FC01329713821282A091B40430
:100AB000B091B504109781F420813181820F931F8A
:100AC0002091B2043091B3042817390751F5F093FF
:100AD000B304E093B20467C0ED0120E030E0CE172C
:100AE000DF0740F44A815B819E0141155105F1F019
:100AF000EA01F5CFD383C28340815181840F951FD2
:100B0000C817D90759F488819981840F951F0296D7
:100B1000918380838A819B81938382832115310510
:100B200029F4F093B504E093B4043DC0E901FB83DC
:100B3000EA8349915991C40FD51FEC17FD0761F461
:100B400080819181840F951F0296E90199838883A2
:100B5000828193819B838A83E0E0F0E012968D91FD
:100B60009C911397009719F0FD01DC01F7CF8D914F
:100B70009C9111979D012E5F3F4F820F931F2091F3
:100B8000B2043091B3042817390769F4309729F477
:100B90001092B5041092B40402C013821282B09372
:100BA000B304A093B204DF91CF910895453251056B
:100BB00020F4423010F00C94E105FB011082CB01CF
:100BC0000895BB274A3031F4992322F4BDE2909571
:100BD00081959F4F0C94ED05BB27FB015527AA2754
:100BE000880F991FAA1FA41710F0A41B83955051BA
:100BF000B9F7A05DAA3308F0A95DA193009779F732
:100C0000B111B1931192CB010C941F08AEE0B0E08A
:100C1000ECE0F6E00C94D7080D891E8986E08C8301
:100C20001A8309838FEF9FE79E838D83AE01475E12
:100C30005F4F6F89788DCE0101960E942806EF8163
:100C4000F885E00FF11F10822E96E4E00C94F30873
:100C5000ABE0B0E0EEE2F6E00C94C9086C017B0179
:100C60008A01FC0117821682838181FFCCC1CE01EB
:100C700001963C01F6019381F70193FD859193FF65
:100C800081917F01882309F4BAC1853239F493FD3B
:100C9000859193FF81917F01853229F4B60190E01F
:100CA0000E942F08E7CF912C212C312CFFE1F31566
:100CB000D8F08B3279F038F4803279F08332A1F4B5
:100CC000232D20611DC08D3261F0803369F4232D06
:100CD000216016C0832D8260382EE32DE4603E2E05
:100CE0002AC0F32DF8601DC037FC2DC020ED280F61
:100CF0002A3040F08E32B9F436FC81C1232D2064B5
:100D0000322E19C036FE06C08AE0989E200D1124AE
:100D1000922E11C0EAE02E9E200D1124222EF32DDA
:100D2000F0623F2E08C08C3621F4832D8068382E67
:100D300002C0883641F4F70193FD859193FF8191BC
:100D40007F018111B3CF982F9F7D9554933028F464
:100D50000C5F1F4F9FE399830DC0833631F08337BB
:100D600071F0833509F059C021C0F8018081898371
:100D70000E5F1F4F88248394912C530113C02801C8
:100D8000F2E04F0E511CF801A080B18036FE03C086
:100D9000692D70E002C06FEF7FEFC5010E9414085B
:100DA0004C018201F32DFF773F2E16C0280122E06F
:100DB000420E511CF801A080B18036FE03C0692D9F
:100DC00070E002C06FEF7FEFC5010E9409084C017F
:100DD000F32DF0683F2E820133FC1BC0822D90E082
:100DE00088169906B0F4B60180E290E00E942F08C0
:100DF0002A94F4CFF50137FC859137FE81915F018C
:100E0000B60190E00E942F0821102A9421E0821A56
:100E100091088114910471F7E8C0843611F0893685
:100E200041F5F80137FE07C06081718182819381AD
:100E30000C5F1F4F08C060817181072E000C880B6A
:100E4000990B0E5F1F4FF32DFF763F2E97FF09C0C2
:100E500090958095709561957F4F8F4F9F4FF0686B
:100E60003F2E2AE030E0A3010E946B08882E8618EE
:100E700045C0853731F4232D2F7EB22E2AE030E095
:100E800025C0932D997FB92E8F36C1F018F488357F
:100E900079F0B5C0803719F0883721F0B0C0E92F5C
:100EA000E061BE2EB4FE0DC0FB2DF460BF2E09C064
:100EB00034FE0AC0292F2660B22E06C028E030E09A
:100EC00005C020E130E002C020E132E0F801B7FEC9
:100ED00007C060817181828193810C5F1F4F06C0C2
:100EE0006081718180E090E00E5F1F4FA3010E943E
:100EF0006B08882E8618FB2DFF773F2E36FE0DC01F
:100F0000232D2E7FA22E891458F434FE0BC032FC00
:100F100009C0832D8E7EA82E05C0B82CA32C03C03B
:100F2000B82C01C0B92CA4FE0FC0FE01E80DF11DC4
:100F30008081803321F49A2D997EA92E09C0A2FECA
:100F400006C0B394B39404C08A2D867809F0B39494
:100F5000A3FC11C0A0FE06C0B21488F4280C922C89
:100F60009B180EC0B21460F4B60180E290E00E94BB
:100F70002F08B394F7CFB21418F42B1802C0982C92
:100F8000212CA4FE10C0B60180E390E00E942F083F
:100F9000A2FE17C0A1FC03C088E790E002C088E56C
:100FA00090E0B6010CC08A2D867859F0A1FE02C0EF
:100FB0008BE201C080E2A7FC8DE2B60190E00E94C6
:100FC0002F08891438F4B60180E390E00E942F08BE
:100FD0009A94F7CF8A94F301E80DF11D8081B60150
:100FE00090E00E942F088110F5CF222009F442CE14
:100FF000B60180E290E00E942F082A94F6CFF60115
:101000008681978102C08FEF9FEF2B96E2E10C94CF
:10101000E508FC010590615070400110D8F78095FB
:1010200090958E0F9F1F0895FC01615070400190B4
:101030000110D8F7809590958E0F9F1F0895DC01C1
:10104000FC01672F71917723E1F7329704C07C91FF
:101050006D9370836291AE17BF07C8F308950F9325
:101060001F93CF93DF93FB01238121FD03C08FEFFB
:101070009FEF2CC022FF16C0468157812481358105
:101080004217530744F4A081B1819D012F5F3F4F68
:10109000318320838C93268137812F5F3F4F3783A5
:1010A000268314C08B01EC01FB010084F185E02D47
:1010B0000995892BE1F6D80116968D919C91179789
:1010C000019617969C938E931697CE01DF91CF9140
:1010D0001F910F910895FA01AA27283051F120316C
:1010E00081F1E8946F936E7F6E5F7F4F8F4F9F4FBC
:1010F000AF4FB1E03ED0B4E03CD0670F781F891FFE
:101100009A1FA11D680F791F8A1F911DA11D6A0FCB
:10111000711D811D911DA11D20D009F468943F917E
:101120002AE0269F11243019305D3193DEF6CF017D
:101130000895462F4770405D4193B3E00FD0C9F743
:10114000F6CF462F4F70405D4A3318F0495D31FDB0
:101150004052419302D0A9F7EACFB4E0A695979503
:10116000879577956795BA95C9F7009761057105D9
:1011700008959B01AC010A2E069457954795379523
:101180002795BA95C9F7620F731F841F951FA01D7D
:1011900008952F923F924F925F926F927F928F921B
:1011A0009F92AF92BF92CF92DF92EF92FF920F93F6
:1011B0001F93CF93DF93CDB7DEB7CA1BDB0B0FB600
:1011C000F894DEBF0FBECDBF09942A8839884888BD
:1011D0005F846E847D848C849B84AA84B984C88453
:1011E000DF80EE80FD800C811B81AA81B981CE0F4A
:1011F000D11D0FB6F894DEBF0FBECDBFED0108952F
:04120000F894FFCF90
:101204000000B60420009004660466043041542BA8
:101214005253540D0A000041542B554152545F441B
:1012240045463D393630302C382C312C302C300D9D
:101234000A000041542B43574A41503D2225732252
:101244002C222573220D0A000041542B43574D4F85
:1012540044453D310D0A000041542B4349504D553E
:10126400583D310D0A000041542B43495053455217
:101274005645523D312C38300D0A00003C21444F74
:1012840043545950452068746D6C3E09093C687498
:101294006D6C206C616E673D22656E223E3C686514
:1012A40061643E09093C6D65746120636861727311
:1012B40065743D225554462D38223E09093C6D651E
:1012C400746120687474702D65717569763D225857
:1012D4002D55412D436F6D70617469626C652220D8
:1012E400636F6E74656E743D2249453D6564676540
:1012F400223E09093C6D657461206E616D653D2275
:1013040076696577706F72742220636F6E74656E90
:10131400743D2277696474683D6465766963652DFC
:1013240077696474682C20696E697469616C2D73C3
:1013340063616C653D312E30223E09093C6D657454
:101344006120687474702D65717569763D227265CB
:1013540066726573682220636F6E74656E743D22D5
:10136400383B2075726C3D687474703A2F2F313994
:10137400322E3136382E32302E34323A3830222062
:101384002F3E09093C7469746C653E464349532DEC
:10139400435359532D323032333C2F7469746C6586
:1013A4003E09093C6C696E6B2072656C3D22737456
:1013B400796C6573686565742220687265663D2280
:1013C40068747470733A2F2F63646E2E6A73646545
:1013D4006C6976722E6E65742F67682F7A69616402
:1013E40062616477792F656D62646564406C6174D1
:1013F4006573742F6D61696E2E637373223E0909E0
:101404003C2F686561643E3C626F64793E3C736561
:101414006374696F6E3E09093C7020636C61737379
:101424003D226D61696E2D776F7264223E25733C97
:101434002F703E09093C64697620636C6173733DC7
:101444002262746E73223E09093C703E53797374B0
:10145400656D206973205475726E6564204F6E3C0F
:101464002F703E09093C6120687265663D222F3168
:10147400223E3C627574746F6E2069643D226F6E07
:101484005F62746E2220636C6173733D2262746EBA
:1014940020622D312D6F6E223E25733C2F627574B0
:1014A400746F6E3E3C2F613E09093C612068726591
:1014B400663D222F32223E3C627574746F6E206941
:1014C400643D226F66665F62746E2220636C617392
:1014D400733D2262746E20622D322D6F6E223E2582
:1014E400733C2F627574746F6E3E3C2F613E090924
:1014F4003C2F6469763E3C2F73656374696F6E3E5E
:101504003C2F626F64793E3C2F68746D6C3E000022
:1015140041542B43495053454E443D25632C256487
:101524000D0A000041542B434950434C4F53453D51
:1015340025630D0A000054656D703A004D6F74699F
:101544006F6E2044657465637465640068656C6DD2
:10155400793132330048656C6D790041542B43492D
:101564004653520D0A004F4646004F4E0048494725
:10157400482054454D502044455445435445440067
:101584004D4F54494F4E204445544543544544001F
:10159400494F5420536D6172742053797374656D8F
:0215A400000045
:00000001FF
